{
  "_format": "hh-sol-artifact-1",
  "contractName": "NodeFinal",
  "sourceName": "contracts/NodeFinal.sol",
  "abi": [
    {
      "inputs": [
        {
          "internalType": "uint256",
          "name": "",
          "type": "uint256"
        }
      ],
      "name": "applications",
      "outputs": [
        {
          "internalType": "address",
          "name": "freelancer",
          "type": "address"
        },
        {
          "internalType": "string",
          "name": "coverLetter",
          "type": "string"
        },
        {
          "internalType": "string",
          "name": "email",
          "type": "string"
        }
      ],
      "stateMutability": "view",
      "type": "function"
    },
    {
      "inputs": [
        {
          "internalType": "uint256",
          "name": "_jobId",
          "type": "uint256"
        },
        {
          "internalType": "string",
          "name": "_coverLetter",
          "type": "string"
        },
        {
          "internalType": "string",
          "name": "_email",
          "type": "string"
        }
      ],
      "name": "applyToJob",
      "outputs": [],
      "stateMutability": "nonpayable",
      "type": "function"
    },
    {
      "inputs": [
        {
          "internalType": "uint256",
          "name": "_jobId",
          "type": "uint256"
        }
      ],
      "name": "getApplications",
      "outputs": [
        {
          "components": [
            {
              "internalType": "address",
              "name": "freelancer",
              "type": "address"
            },
            {
              "internalType": "string",
              "name": "coverLetter",
              "type": "string"
            },
            {
              "internalType": "string",
              "name": "email",
              "type": "string"
            }
          ],
          "internalType": "struct NodeFinal.FreelancerApplication[]",
          "name": "",
          "type": "tuple[]"
        }
      ],
      "stateMutability": "view",
      "type": "function"
    },
    {
      "inputs": [],
      "name": "getJobs",
      "outputs": [
        {
          "components": [
            {
              "internalType": "address",
              "name": "owner",
              "type": "address"
            },
            {
              "internalType": "string",
              "name": "title",
              "type": "string"
            },
            {
              "internalType": "string",
              "name": "description",
              "type": "string"
            },
            {
              "internalType": "uint256",
              "name": "token",
              "type": "uint256"
            },
            {
              "internalType": "uint256",
              "name": "deadline",
              "type": "uint256"
            },
            {
              "internalType": "uint256[]",
              "name": "applicationIds",
              "type": "uint256[]"
            }
          ],
          "internalType": "struct NodeFinal.JobWithApplications[]",
          "name": "",
          "type": "tuple[]"
        }
      ],
      "stateMutability": "view",
      "type": "function"
    },
    {
      "inputs": [
        {
          "internalType": "uint256",
          "name": "",
          "type": "uint256"
        }
      ],
      "name": "jobs",
      "outputs": [
        {
          "internalType": "address",
          "name": "owner",
          "type": "address"
        },
        {
          "internalType": "string",
          "name": "title",
          "type": "string"
        },
        {
          "internalType": "string",
          "name": "description",
          "type": "string"
        },
        {
          "internalType": "uint256",
          "name": "token",
          "type": "uint256"
        },
        {
          "internalType": "uint256",
          "name": "deadline",
          "type": "uint256"
        },
        {
          "internalType": "uint256",
          "name": "freelancerApplied",
          "type": "uint256"
        },
        {
          "internalType": "bool",
          "name": "deleted",
          "type": "bool"
        }
      ],
      "stateMutability": "view",
      "type": "function"
    },
    {
      "inputs": [],
      "name": "numberOfApplications",
      "outputs": [
        {
          "internalType": "uint256",
          "name": "",
          "type": "uint256"
        }
      ],
      "stateMutability": "view",
      "type": "function"
    },
    {
      "inputs": [],
      "name": "numberOfJobs",
      "outputs": [
        {
          "internalType": "uint256",
          "name": "",
          "type": "uint256"
        }
      ],
      "stateMutability": "view",
      "type": "function"
    },
    {
      "inputs": [
        {
          "internalType": "address",
          "name": "_owner",
          "type": "address"
        },
        {
          "internalType": "string",
          "name": "_title",
          "type": "string"
        },
        {
          "internalType": "string",
          "name": "_description",
          "type": "string"
        },
        {
          "internalType": "uint256",
          "name": "_token",
          "type": "uint256"
        },
        {
          "internalType": "uint256",
          "name": "_deadline",
          "type": "uint256"
        }
      ],
      "name": "postJob",
      "outputs": [
        {
          "internalType": "uint256",
          "name": "",
          "type": "uint256"
        }
      ],
      "stateMutability": "nonpayable",
      "type": "function"
    }
  ],
  "bytecode": "0x60806040526000600255600060035534801561001a57600080fd5b506111ee8061002a6000396000f3fe608060405234801561001057600080fd5b50600436106100885760003560e01c806371cc8d2d1161005b57806371cc8d2d146100fb578063bc8c937d14610110578063ce87ce1f14610130578063dfefadff1461013957600080fd5b8063180aedf31461008d5780633c3b04ad146100bc578063489f8816146100d357806368581ebd146100e6575b600080fd5b6100a061009b366004610ced565b61015b565b6040516100b39796959493929190610d53565b60405180910390f35b6100c560035481565b6040519081526020016100b3565b6100c56100e1366004610e55565b6102b4565b6100ee610496565b6040516100b39190610ee9565b61010e610109366004610fdc565b610735565b005b61012361011e366004610ced565b610866565b6040516100b39190611049565b6100c560025481565b61014c610147366004610ced565b610b16565b6040516100b3939291906110e5565b600060208190529081526040902080546001820180546001600160a01b03909216929161018790611125565b80601f01602080910402602001604051908101604052809291908181526020018280546101b390611125565b80156102005780601f106101d557610100808354040283529160200191610200565b820191906000526020600020905b8154815290600101906020018083116101e357829003601f168201915b50505050509080600201805461021590611125565b80601f016020809104026020016040519081016040528092919081815260200182805461024190611125565b801561028e5780601f106102635761010080835404028352916020019161028e565b820191906000526020600020905b81548152906001019060200180831161027157829003601f168201915b505050506003830154600484015460058501546006909501549394919390925060ff1687565b6002546000908152602081905260408120855161030c5760405162461bcd60e51b8152602060048201526011602482015270151a5d1b19481a5cc81c995c5d5a5c9959607a1b60448201526064015b60405180910390fd5b600085511161035d5760405162461bcd60e51b815260206004820152601760248201527f4465736372697074696f6e2069732072657175697265640000000000000000006044820152606401610303565b600084116103b95760405162461bcd60e51b815260206004820152602360248201527f546f6b656e20616d6f756e74206d75737420626520677265617465722074686160448201526206e20360ec1b6064820152608401610303565b4283116104085760405162461bcd60e51b815260206004820152601e60248201527f446561646c696e65206d75737420626520696e207468652066757475726500006044820152606401610303565b80546001600160a01b0319166001600160a01b03881617815585516104369060018301906020890190610c54565b50845161044c9060028301906020880190610c54565b50600381018490556004810183905560068101805460ff191690556002805490600061047783611170565b9190505550600160025461048b919061118b565b979650505050505050565b6060600060025467ffffffffffffffff8111156104b5576104b5610db2565b60405190808252806020026020018201604052801561052857816020015b6105156040518060c0016040528060006001600160a01b0316815260200160608152602001606081526020016000815260200160008152602001606081525090565b8152602001906001900390816104d35790505b50905060005b60025481101561072f576000818152602081905260409020600681015460ff1661071c576040805160c0810190915281546001600160a01b0316815260018201805460208301919061057f90611125565b80601f01602080910402602001604051908101604052809291908181526020018280546105ab90611125565b80156105f85780601f106105cd576101008083540402835291602001916105f8565b820191906000526020600020905b8154815290600101906020018083116105db57829003601f168201915b5050505050815260200182600201805461061190611125565b80601f016020809104026020016040519081016040528092919081815260200182805461063d90611125565b801561068a5780601f1061065f5761010080835404028352916020019161068a565b820191906000526020600020905b81548152906001019060200180831161066d57829003601f168201915b505050505081526020018260030154815260200182600401548152602001826007018054806020026020016040519081016040528092919081815260200182805480156106f657602002820191906000526020600020905b8154815260200190600101908083116106e2575b5050505050815250838381518110610710576107106111a2565b60200260200101819052505b508061072781611170565b91505061052e565b50919050565b6000838152602081905260409020600681015460ff161561078d5760405162461bcd60e51b8152602060048201526012602482015271129bd888191bd95cc81b9bdd08195e1a5cdd60721b6044820152606401610303565b428160040154116107e05760405162461bcd60e51b815260206004820152601760248201527f4a6f6220646561646c696e6520686173207061737365640000000000000000006044820152606401610303565b600354600090815260016020818152604090922080546001600160a01b03191633178155855190926108189284019190870190610c54565b50825161082e9060028301906020860190610c54565b506003805460078401805460018101825560009182526020822001919091558154919061085a83611170565b91905055505050505050565b600081815260208190526040902060068101546060919060ff16156108c25760405162461bcd60e51b8152602060048201526012602482015271129bd888191bd95cc81b9bdd08195e1a5cdd60721b6044820152606401610303565b60078101805460008167ffffffffffffffff8111156108e3576108e3610db2565b60405190808252806020026020018201604052801561094157816020015b61092e604051806060016040528060006001600160a01b0316815260200160608152602001606081525090565b8152602001906001900390816109015790505b50905060005b82811015610b0c5760016000858381548110610965576109656111a2565b906000526020600020015481526020019081526020016000206040518060600160405290816000820160009054906101000a90046001600160a01b03166001600160a01b03166001600160a01b031681526020016001820180546109c890611125565b80601f01602080910402602001604051908101604052809291908181526020018280546109f490611125565b8015610a415780601f10610a1657610100808354040283529160200191610a41565b820191906000526020600020905b815481529060010190602001808311610a2457829003601f168201915b50505050508152602001600282018054610a5a90611125565b80601f0160208091040260200160405190810160405280929190818152602001828054610a8690611125565b8015610ad35780601f10610aa857610100808354040283529160200191610ad3565b820191906000526020600020905b815481529060010190602001808311610ab657829003601f168201915b505050505081525050828281518110610aee57610aee6111a2565b60200260200101819052508080610b0490611170565b915050610947565b5095945050505050565b6001602081905260009182526040909120805491810180546001600160a01b0390931692610b4390611125565b80601f0160208091040260200160405190810160405280929190818152602001828054610b6f90611125565b8015610bbc5780601f10610b9157610100808354040283529160200191610bbc565b820191906000526020600020905b815481529060010190602001808311610b9f57829003601f168201915b505050505090806002018054610bd190611125565b80601f0160208091040260200160405190810160405280929190818152602001828054610bfd90611125565b8015610c4a5780601f10610c1f57610100808354040283529160200191610c4a565b820191906000526020600020905b815481529060010190602001808311610c2d57829003601f168201915b5050505050905083565b828054610c6090611125565b90600052602060002090601f016020900481019282610c825760008555610cc8565b82601f10610c9b57805160ff1916838001178555610cc8565b82800160010185558215610cc8579182015b82811115610cc8578251825591602001919060010190610cad565b50610cd4929150610cd8565b5090565b5b80821115610cd45760008155600101610cd9565b600060208284031215610cff57600080fd5b5035919050565b6000815180845260005b81811015610d2c57602081850181015186830182015201610d10565b81811115610d3e576000602083870101525b50601f01601f19169290920160200192915050565b6001600160a01b038816815260e060208201819052600090610d7790830189610d06565b8281036040840152610d898189610d06565b9150508560608301528460808301528360a083015282151560c083015298975050505050505050565b634e487b7160e01b600052604160045260246000fd5b600082601f830112610dd957600080fd5b813567ffffffffffffffff80821115610df457610df4610db2565b604051601f8301601f19908116603f01168101908282118183101715610e1c57610e1c610db2565b81604052838152866020858801011115610e3557600080fd5b836020870160208301376000602085830101528094505050505092915050565b600080600080600060a08688031215610e6d57600080fd5b85356001600160a01b0381168114610e8457600080fd5b9450602086013567ffffffffffffffff80821115610ea157600080fd5b610ead89838a01610dc8565b95506040880135915080821115610ec357600080fd5b50610ed088828901610dc8565b9598949750949560608101359550608001359392505050565b60006020808301818452808551808352604092508286019150828160051b8701018488016000805b84811015610fcd57898403603f19018652825180516001600160a01b031685528881015160c08a870181905290610f4a82880182610d06565b915050888201518682038a880152610f628282610d06565b606084810151908901526080808501519089015260a093840151888203948901949094528351808252938c0193869350908c0191505b80831015610fb85783518252928b019260019290920191908b0190610f98565b50978a01979550505091870191600101610f11565b50919998505050505050505050565b600080600060608486031215610ff157600080fd5b83359250602084013567ffffffffffffffff8082111561101057600080fd5b61101c87838801610dc8565b9350604086013591508082111561103257600080fd5b5061103f86828701610dc8565b9150509250925092565b60006020808301818452808551808352604092508286019150828160051b87010184880160005b838110156110d757888303603f19018552815180516001600160a01b03168452878101516060898601819052906110a982870182610d06565b915050878201519150848103888601526110c38183610d06565b968901969450505090860190600101611070565b509098975050505050505050565b6001600160a01b038416815260606020820181905260009061110990830185610d06565b828103604084015261111b8185610d06565b9695505050505050565b600181811c9082168061113957607f821691505b6020821081141561072f57634e487b7160e01b600052602260045260246000fd5b634e487b7160e01b600052601160045260246000fd5b60006000198214156111845761118461115a565b5060010190565b60008282101561119d5761119d61115a565b500390565b634e487b7160e01b600052603260045260246000fdfea2646970667358221220d5cdd3ccd613de6a0afea694a83863c303ae5ffd64f32e8131692488a08337fe64736f6c63430008090033",
  "linkReferences": {},
  "deployedLinkReferences": {}
}